:020000040800F2
:10000000C81E0020650100084D4E00084F4E000834
:10001000594E0008634E00086D4E000800000000B5
:10002000000000000000000000000000774E000803
:10003000794E0008000000007B4E0008EF700008B9
:100040007F0100087F0100087F0100087F01000890
:100050007F0100087F0100087F0100087F01000880
:100060007F010008136F00086B6F00087F01000814
:100070007F0100087F0100087F0100087F01000860
:100080007F0100087F0100087F0100087F01000850
:100090007D4E00087F0100087F010008C36F000843
:1000A0007F0100081F6700087F0100087F0100082A
:1000B0007F0100087F0100087F0100085F640008DD
:1000C000756000086F640008676400087F0100081D
:1000D0007F0100087F0100087F0100087F01000800
:1000E0007F0100087F010008854E00087F0100089D
:1000F000956600087F0100087F0100087F01000865
:100100007F0100087F010008A96700087F0100083F
:10011000BB7700087F0100087F0100087F0100080D
:100120007F0100087F0100087F0100087F010008AF
:10013000DFF80CD00DF04EF90048004789010008A7
:10014000C81E0020EFF30980704780F309887047CC
:10015000EFF30880704780F30888704740BA704713
:10016000C0BA70470648804706480047FEE7FEE7EA
:10017000FEE7FEE7FEE7FEE7FEE7FEE7FEE7FEE757
:10018000B32A00083101000888B007F068F803F0CE
:1001900057F90120B04908705CE1B048007898B187
:1001A0000020AE49087006F088FF0446AC4800689D
:1001B000201AAC490860AA48046004F009FC06F063
:1001C0007CFF001BA8490860A848007898B100206F
:1001D000A649087006F071FF0446A5480068201A79
:1001E000A4490860A248046007F0AFFF06F065FF6D
:1001F000001BA1490860A148007800287DD000209C
:100200009E49087006F059FF04469D480068201A70
:100210009C4908609A48046000219B4802F0FCF861
:10022000994802F0B0FB994908800021964802F0F5
:1002300087FB0121944802F0EFF8944800880CF005
:100240003FFE054692490CF03AFC924908609249FB
:10025000B1F900000CF02BFE0646904801683046CC
:100260000CF027FC05468E490CF029FC8D490860EE
:100270008949B1F902000CF01AFE06468748416828
:1002800030460CF016FC054685490CF018FC8549F3
:1002900048608149B1F904000CF009FE06467F4828
:1002A000816830460CF005FC80F000457C4928460A
:1002B0000CF005FC7B4988607B49B1F900000CF02B
:1002C000F6FD07467948016838460CF0F2FB064611
:1002D0007748016830460CF0ECFB054675490CF098
:1002E000EEFB704948627049B1F902000CF0DFFD85
:1002F00007466E484168384600E06CE00CF0D9FBD8
:1003000006466B48416830460CF0D3FB0546694908
:100310000CF0D5FB634988626349B1F904000CF025
:10032000C6FD07466148816838460CF0C2FB0646A8
:100330005F48816830460CF0BCFB80F000455D49A9
:1003400028460CF0BCFB5749C8625248006801F1CE
:1003500024030A460C310090574803F0F9F851493C
:100360000868564903F040FC4E4908604868534904
:10037000143103F039FC4B49486088684F492831F3
:1003800003F032FC47498860424802684C480378D1
:100390000846806B496BCDE90532CDE90310414831
:1003A000006B404989683F4A52683E4DCDE90021C3
:1003B00002902B68EA6AA96A686A03F0ACFD002023
:1003C0003F4908703348006802F054FD06F075FE9E
:1003D000001B3C4908603C48007888B100203A493D
:1003E000087006F06AFE044638480068201A38494A
:1003F00008603648046006F060FE001B354908605E
:100400003548007888B100203349087006F055FE61
:10041000044632480068201A314908602F480460B9
:1004200006F04BFE001B2F4908602F48007888B16A
:1004300000202D49087006F040FE04462B48006855
:10044000201A2B4908602948046006F036FE001B7C
:1004500028490860A1E60000A4010020480100200E
:100460007801002070010020740100204901002063
:10047000840100207C010020800100204601002032
:1004800060010020580100200010004008000020FA
:10049000BD370635A0010020B8010020141A002045
:1004A00057E79C3A64040020C4010020201A002071
:1004B0002C1A0020A8B38B39C4040020D00C0020D3
:1004C000B20100205C010020470100206C010020E7
:1004D00064010020680100204A01002090010020F2
:1004E000880100208C0100204B0100209C0100208D
:1004F0009401002098010020DF48006840F00100CE
:10050000DD49086008464068DC490840DA4948602F
:1005100008460068DA490840D7490860084600687C
:1005200020F4802008600846406820F4FE004860FF
:100530004FF41F0088607047CF49096821F480316B
:10054000CD4A11601146096821F480211160B0F58F
:10055000803F03D0B0F5802F0ED106E0C649096870
:1005600041F48031C44A116007E0C349096841F48D
:10057000A021C14A116000E000BF00BF704710B564
:1005800001460022002300204A11012A02D1BA4C60
:10059000236806E0022A02D1B74C236A01E0B64C78
:1005A000636A01F01F02012494401C400CB1012039
:1005B00000E0002010BD38B5002000900024002588
:1005C00000BF3120FFF7DBFF05460098401C00907C
:1005D0000098B0F5A06F01D0002DF2D03120FFF7C8
:1005E000CEFF08B1012400E00024204638BD0146BA
:1005F0000020A14A106820F0F80040EAC100106015
:100600007047A04908607047024600209A4B58681E
:1006100020F47C1042EA01031843974B586070475E
:1006200098490866704701460020934A506820F0B8
:1006300003000843506070478F48406800F00C008A
:100640007047014600208C4A506820F0F0000843B3
:100650005060704701460020874A506820F4E060EF
:1006600008435060704701460020834A506820F4D8
:10067000605040EAC1005060704729B17E4A527A0A
:1006800002437D4B5A7204E07B4A527A82437A4B92
:100690005A7270477B49D831086070470146002084
:1006A000754A506820F4404008435060704700216C
:1006B000714A20321170704A82F82010012802D04D
:1006C00004280AD104E001216B4A2032117005E0B0
:1006D0000521694A2032117000E000BF00BF704759
:1006E0006949086070476449096A0143624A1162B6
:1006F0007047654944390860704730B500210022D1
:10070000002400235C4D6D6805F00C0121B1042923
:1007100005D0082923D105E05C4D056022E05B4D42
:1007200005601FE0544D6D6805F47012524D6D6800
:1007300005F48034022505EB92421CB9544D554313
:1007400005600BE04C4D6D6805F400351DB1504D52
:100750005543056002E04D4D5543056002E04B4DA9
:10076000056000BF00BF444D6D6805F0F001090948
:10077000484D6B5C0568DD4045603F4D6D6805F494
:10078000E061090A434D6B5C4568DD4085603A4D88
:100790006D6805F46051C90A3E4D6B5C4568DD40EB
:1007A000C560354D6D6805F44041890B3A4D6B5C71
:1007B000C568B5FBF3F5056130BD29B12E4A526914
:1007C00002432D4B5A6104E02B4A526982432A4B63
:1007D0005A61704729B1284A92690243264B9A61AF
:1007E00004E0254A92698243234B9A61704729B1FC
:1007F000214AD2690243204BDA6104E01E4AD269E1
:1008000082431D4BDA61704729B11B4AD26802430B
:10081000194BDA6004E0184AD2688243164BDA605A
:10082000704729B1144A12690243134B1A6104E05C
:10083000114A12698243104B1A61704712494039BC
:10084000086070470F49C86470470B49C87170470A
:100850000948406A40F08070074948627047014685
:100860000020054A92680A400AB1012000E00020F9
:100870007047014988727047001002400000FFF87D
:10088000FFFFF6FE000042428004424200127A005E
:1008900000093D000A0000201A00002010B504469F
:1008A000CC48844208D101210420FFF7ADFF00218C
:1008B0000420FFF7A9FF46E0C748844208D1012180
:1008C0000820FFF7A1FF00210820FFF79DFF3AE075
:1008D000C248844208D101211020FFF795FF002172
:1008E0001020FFF791FF2EE0BD48844208D101217E
:1008F0002020FFF789FF00212020FFF785FF22E05D
:10090000B848844208D101214020FFF77DFF002133
:100910004020FFF779FF16E0B348844208D1012157
:100920008020FFF771FF00218020FFF76DFF0AE0B4
:10093000AE48844207D101218015FFF765FF0021F1
:10094000A015FFF761FF10BD10B501210846FFF7A4
:100950005BFF00210120FFF757FF10BD2DE9F0419B
:10096000024600250026002000230024002791F8DD
:1009700003C00CF00F0591F803C00CF0100CBCF193
:10098000000F03D091F802C04CEA050591F800C0B1
:10099000BCF1000F31D0146800202BE04FF0010CA7
:1009A0000CFA00F3B1F800C00CEA03069E4220D115
:1009B00083004FF00F0C0CFA03F7BC4305FA03FC5D
:1009C0004CEA040491F803C0BCF1280F06D14FF0A3
:1009D000010C0CFA00FCC2F814C00AE091F803C044
:1009E000BCF1480F05D14FF0010C0CFA00FCC2F825
:1009F00010C0401C0828D1D31460B1F800C0BCF16D
:100A0000FF0F34DD546800202EE000F1080C4FF099
:100A1000010808FA0CF3B1F800C00CEA03069E4284
:100A200021D183004FF00F0C0CFA03F7BC4305FAF9
:100A300003FC4CEA040491F803C0BCF1280F05D173
:100A400000F1080C08FA0CF8C2F8148091F803C001
:100A5000BCF1480F07D100F1080C4FF0010808FA6B
:100A60000CF8C2F81080401C0828CED35460BDE8B2
:100A7000F0814FF6FF710180022181700421C17065
:100A800070470246002093680B400BB1012000E044
:100A9000002070470146886880B2704702460020F7
:100AA000D3680B400BB1012000E0002070470146E5
:100AB000C86880B2704701617047416170470AB1F0
:100AC000016100E041617047C16070474FF48032BE
:100AD0000A4382618161826182698269704702464C
:100AE0000020434B18684FF68073184040EA02100C
:100AF00008433F4B186070473E49C8617047F0B5E6
:100B00000A46002300240021002500F00046B6F12B
:100B1000004F02D1364EF16901E0354E7168C0F3E5
:100B2000034583B200F44016B6F5401F08D121F00A
:100B300070612F4E766826F070662D4F7E6012E051
:100B400000F48016B6F5801F06D1032606FA05F4D8
:100B5000A14341F0706106E0460D360103FA06F646
:100B6000B14341F0706122B1460D360103FA06F639
:100B7000314300F00046B6F1004F02D11C4EF16146
:100B800001E01B4E7160F0BD30B500228B071C0FD9
:100B90000F2303FA04F2164B08338C1053F8243059
:100BA0009343134C08348D1044F8253023468C10A1
:100BB00053F824308C07240F00FA04F423430C4C20
:100BC00008348D1044F8253030BD0A49DC31086006
:100BD0007047000000080140000C01400010014077
:100BE0000014014000180140001C01400020014099
:100BF000000001400000204210B50446FB4884423A
:100C000009D101218803FFF7FFFD00214FF4804047
:100C1000FFF7FAFD32E0F648844209D10121480489
:100C2000FFF7FFFD00214FF40030FFF7FAFD25E04C
:100C3000F048844209D101218804FFF7F2FD002128
:100C40004FF48020FFF7EDFD18E0EB48844209D116
:100C50000121C804FFF7E5FD00214FF40020FFF754
:100C6000E0FD0BE0E548844208D101210805FFF7CB
:100C7000D8FD00214FF48010FFF7D3FD10BD2DE902
:100C8000F04786B005460E460024A24600BFA146A6
:100C90000027B08900B100BF2F462C8A4CF6FF70A8
:100CA0000440F08804432C82AC894EF6F3100440D3
:100CB000B08831890843718908430443AC81AC8A08
:100CC0004FF6FF400440B0890443AC8201A8FFF70F
:100CD00014FDC648874202D1DDF810A001E0DDF81E
:100CE0000CA0A88900F4004040B10AEBCA0000EB58
:100CF0000A1031684900B0FBF1F807E00AEBCA00BE
:100D000000EB0A1031688900B0FBF1F86420B8FBF1
:100D1000F0F004012009642101FB1089A88900F486
:100D2000004040B1322000EBC900B0FBF1F000F010
:100D30000700044308E0322000EB09106421B0FBF7
:100D4000F1F000F00F0004432C8106B0BDE8F087FD
:100D50004FF41651016000218180C18001810C2176
:100D6000418100218181704710B502460020108A20
:100D70004FF2FF0318400B884C8823438C88234391
:100D8000CC8823431843108210BD0021018041808C
:100D90008180C180704721B1828942F400528281F2
:100DA00004E082894DF6FF731A4082817047F0B5E6
:100DB0000346002400260025002040F66A17B942A9
:100DC00000D100BF1846C1F3421401F01F060127ED
:100DD00007FA06F5012C01D10C3004E0022C01D1F8
:100DE000103000E014301AB107682F43076002E0AA
:100DF0000768AF430760F0BD1AB1838A0B43838253
:100E000002E0838A8B4383827047028A4FF6F07335
:100E10001A400282028A0A430282704782894FF294
:100E2000FF731A40828182890A438281704721B10F
:100E3000828942F00202828104E082894FF6FD73CA
:100E40001A4082817047028A4FF6DF731A4002828D
:100E5000028A0A430282704721B1028A42F4804228
:100E6000028204E0028A4BF6FF731A400282704746
:100E7000C1F308028280704701468888C0F30800E9
:100E80007047818941F0010181817047028BD2B2A4
:100E90000283028B42EA012202837047028B02F432
:100EA0007F420283028B0A430283704721B1828A08
:100EB00042F02002828204E0828A4FF6DF731A40F9
:100EC0008282704721B1828A42F01002828204E05D
:100ED000828A4FF6EF731A408282704721B1828A6C
:100EE00042F00802828204E0828A4FF6F7731A40C9
:100EF0008282704721B1828942F40042828103E0FC
:100F00008289C2F30E028281704721B1828A42F443
:100F10000062828204E0828A4FF2FF731A4082826A
:100F20007047828A4FF6FB731A408282828A0A4394
:100F30008282704721B1828A42F00202828204E0FA
:100F4000828A4FF6FD731A40828270470246002063
:100F5000B1F5007F00D100BF13880B400BB1012019
:100F600000E00020704701F40072B2F5007F00D16C
:100F700000BFCA430280704770B5024600240023B8
:100F80000025002040F66A16B14200D100BFC1F32F
:100F9000421501F01F03012606FA03F3012D02D1C9
:100FA0009689334006E0022D02D1168A334001E0D3
:100FB000968A33400C12012606FA04F4168834404F
:100FC00013B10CB1012000E0002070BD10B500226B
:100FD000002340F66A14A14200D100BF0A12012486
:100FE0009440A3B2DC43048010BD000000380140EF
:100FF0000044004000480040004C004000500040C9
:1010000031490143314A1160704770B50021002316
:101010000F22C47804B32D4C246804F4E064C4F5B2
:10102000E064210AC1F10403CA40447804FA03F1E0
:101030008478144021430901254C0678A155047891
:1010400004F01F050124AC4005786D11AD0005F1D9
:10105000E025C5F8004109E0047804F01F050124EB
:10106000AC401C4D0678761145F8264070BD1A4AF2
:101070000A400243154B1B1F1A60704739B1134ACF
:10108000121D12680243114B1B1D1A6006E00F4A25
:10109000121D126882430D4B1B1D1A6070470428F5
:1010A00008D14FF0E021096941F004014FF0E0223E
:1010B000116107E04FF0E021096921F004014FF0D0
:1010C000E0221161704700000000FA050CED00E01D
:1010D00000E400E080E100E080FFFF1F00204449C1
:1010E0000860091D0860091D0860091D0860414865
:1010F0003F4914310860704700213D498279002A38
:101100003AD00A46126803689A430B461A600A1DD1
:10111000126803689A430B1D1A60027911440A6829
:1011200003681A430A60324A0832126803689A4315
:101130002F4B08331A601A1D126803689A432C4B10
:101140000C331A604279102A0ED11A1F12680368F4
:101150001A43274B08331A601A1D126803681A4392
:10116000234B0C331A600DE02149427911440A687F
:1011700003681A430A6005E0027911440A680368AB
:101180009A430A6070470021016001710C2141718E
:101190000021817170471649103109680143144AD2
:1011A00010321160704701460020114A1432126853
:1011B0000A400AB1012000E0002070470C491431B8
:1011C00008607047014600200022094B1B6803EAB3
:1011D0000102074B14331B680B4013B10AB1012005
:1011E00000E0002070470249143108607047000099
:1011F00000040140FFFF0F0001460020FE4A106876
:1012000000F03800084310607047FB49096821F07E
:101210000801F94A116011460968014311607047DD
:10122000F549096821F01001F34A11601146096877
:10123000014311607047F148EF494860F048486049
:101240007047EE48EC494860ED4848607047EA480E
:10125000006940F08000E84908617047E64800698D
:1012600040F08000E449086170470420E249C96801
:1012700001F0010109B101200EE0DF49C96801F068
:10128000040109B1022007E0DB49C96801F010013F
:1012900009B1032000E00420704700B50246042392
:1012A000FFF7E3FF034603E0FFF7DFFF0346521EAD
:1012B000012B01D1002AF7D102B90523184600BD40
:1012C00030B5044604254FF43020FFF7E6FF05460D
:1012D000042D17D1C848006940F00200C6490861D2
:1012E00008464461006940F0400008614FF4302036
:1012F000FFF7D3FF0546C048006941F6FD7108407D
:10130000BD490861284630BD10B504244FF4302093
:10131000FFF7C3FF0446042C16D1B748006940F01C
:101320000400B54908610846006940F040000861C2
:101330004FF43020FFF7B1FF0446AF48006941F693
:10134000FB710840AC490861204610BD00B502465B
:101350000423FFF78AFF034603E0FFF786FF0346F7
:10136000521E012B01D1002AF7D102B905231846DC
:1013700000BD10B504244FF43020FFF7E7FF04460A
:10138000042C16D19C48006940F004009A49086179
:101390000846006940F0400008614FF43020FFF734
:1013A000D5FF04469448006941F6FB710840924914
:1013B0000861204610BD00208F49C96901F0020173
:1013C00009B1012000E00020704730B5A5250424B4
:1013D000FFF7F1FF00B100254FF43020FFF75DFF6C
:1013E0000446042C3AD18548834988608448886043
:1013F0000846006940F0200008610846006940F096
:10140000400008614FF43020FFF747FF0446042CEA
:101410001BD17948006941F6DF71084076490861BF
:101420000846006940F01000086176480580E00237
:10143000FFF733FF0446052C10D06F48006941F6D2
:10144000EF7108406C49086108E0052C06D06A4835
:10145000006941F6EF71084067490861204630BDD8
:1014600078B506460C46042500200090E802FFF7F8
:1014700014FF0546042D24D15F48006940F00100A7
:101480005D4908613480E802FFF707FF0546042D37
:1014900010D1B01C0090200C00990880E802FFF7E2
:1014A000FCFE05465448006941F6FE710840524969
:1014B000086106E05048006941F6FE7108404E4957
:1014C0000861284678BD70B504460D460426F00232
:1014D000FFF7E3FE0646042E11D14748006940F0AD
:1014E0000100454908612580F002FFF7D6FE064657
:1014F0004148006941F6FE7108403F4908613046A5
:1015000070BD70B505460E460424E002FFF7C5FE27
:101510000446042C17D13948374988603848886018
:101520000846006940F0100008612E80E002FFF7D5
:10153000B4FE0446052C06D02F48006941F6EF7131
:1015400008402D490861204670BD2DE9F04304464E
:101550004FF6FF763746B046B1460425E443E6B27F
:10156000C4F30727C4F307484FEA1469E802FFF7FA
:1015700094FE0546042D49D120481F498860204823
:1015800088600846006940F010000861FF2E06D010
:101590001C4808300680E802FFF77FFE0546042D50
:1015A00008D1FF2F06D017480A300780E802FFF75E
:1015B00074FE0546042D0AD1B8F1FF0F07D011487B
:1015C0000C30A0F80080E802FFF767FE0546042D06
:1015D0000AD1B9F1FF0F07D00A480E30A0F80090E9
:1015E000E802FFF75AFE0546052D0FD002480069B4
:1015F00041F6EF71084007E00020024023016745F3
:10160000AB89EFCD00F8FF1F664908612846BDE8A9
:10161000F08330B5054604244FF43020FFF73DFE3B
:101620000446042C41D160485E4988605F48886068
:101630000846006940F0200008610846006940F053
:10164000400008614FF43020FFF727FE0446042CC9
:1016500022D15448006941F6DF71084051490861C0
:101660000846006940F0100008611DB10020504993
:10167000088002E0A5204E4908804FF43020FFF793
:101680000CFE0446052C10D04648006941F6EF7167
:1016900008404449086108E0052C06D0414800692B
:1016A00041F6DF7108403F490861204630BDF0B582
:1016B00005460E46174604243B483A4988603B4895
:1016C0008860E002FFF7E9FD0446042C19D1354893
:1016D000006940F010003349086147F0F8003043DA
:1016E00028433349891C0880E002FFF7D6FD0446F1
:1016F000052C06D02B48006941F6EF7108402949B6
:1017000008612046F0BD2748C06980087047254819
:10171000006A704700202349096801F0200109B1DF
:10172000012000E00020704729B11E4A12690243DF
:101730001C4B1A6104E01B4A12698243194B1A615F
:10174000704701460020012908D1164AD26902F0EB
:1017500001020AB1012008E0002006E0114AD26827
:101760000A400AB1012000E0002070470D49C8601E
:10177000704704200B49C96801F0010109B101203B
:101780000EE00849C96801F0040109B1022007E030
:101790000449C96801F0100109B1032000E00420E8
:1017A000704700000020024023016745AB89EFCD60
:1017B00000F8FF1F10B50446F748844209D1012103
:1017C0004805FFF72EF800214FF40010FFF729F825
:1017D00008E001218805FFF724F800214FF480007C
:1017E000FFF71FF810BD2DE9F04385B004460D4604
:1017F0000026B1460427DFF8A483A6884FF6C07000
:1018000006406846FEF779FFDDF80880E448B8FB3B
:10181000F0F01FFA80F946EA0906A68020884FF604
:10182000FE71084020800026DE49286888420CD8D6
:1018300028684000B8FBF0F087B2042F00DA0427D4
:101840003E4309F10100208427E0E8884BF6FF7150
:10185000884206D1286800EB4000B8FBF0F087B260
:1018600009E0286800EBC00101EB0010B8FBF0F0C4
:1018700087B247F48047C7F30B0008B947F0010768
:1018800047F4004006434FF4967009FB00F04FF414
:101890007A7190FBF1F0401C2084A683208840F0F0
:1018A0000100208026884FF6F5300640A888698917
:1018B000084306432680A88929890843208105B06A
:1018C000BDE8F08341F288310160002181804BF650
:1018D000FF71C1800021018141814FF480418181EC
:1018E000704721B1028842F00102028004E00288C0
:1018F0004FF6FE731A400280704721B1828842F48D
:101900000062828004E082884FF2FF731A40828076
:10191000704721B1828842F48052828004E082883C
:101920004EF6FF731A408280704721B1028842F45C
:101930008072028004E002884FF6FF631A40028042
:10194000704721B1028842F40072028004E00288EC
:101950004FF6FF531A400280704721B1028842F4CB
:101960008062028004E002884FF6FF331A40028052
:1019700070470A46002181894FF60173194002F031
:10198000FE0319438181704721B1828942F001022F
:10199000828104E082894FF6FE731A40828170478B
:1019A00021B1028842F04002028004E002884FF632
:1019B000BF731A40028070471AB183880B4383803B
:1019C00002E083888B438380704701827047014621
:1019D000088AC0B2704712B141F0010102E04FF62F
:1019E000FE7319400182704708B50246002000903E
:1019F00000920098084400900098008808BD21B12A
:101A0000028842F40042028003E00288C2F30E0220
:101A100002807047B1F5006F04D1028842F4006281
:101A2000028004E002884FF2FF731A400280704780
:101A3000B1F5005F04D1028842F40052028004E054
:101A400002884DF6FF731A400280704721B1028868
:101A500042F48052028004E002884EF6FF731A407E
:101A600002807047B1F5006F04D1028842F4006231
:101A7000028004E002884FF2FF731A400280704730
:101A800021B1028842F02002028004E002884FF671
:101A9000DF731A40028070470146088B00127047BE
:101AA00021B1028842F01002028004E002884FF661
:101AB000EF731A400280704721B9028842F0800219
:101AC000028004E002884FF67F731A40028070475C
:101AD000B1F5804F05D0828B4BF6FF731A4082839D
:101AE00003E0828B42F480428283704770B50246E5
:101AF0000024002500230020958A138B1B0445EA4F
:101B0000030626F07F4404EA01068E4201D101203B
:101B100000E0002070BD10B5014600200023002227
:101B20008B8A0A8B120443EA020424F07F4010BD22
:101B30000CB50246002000230193009300920B0F86
:101B4000019321F07F41019B1BB1009B1433009353
:101B500003E0090C009B18330093009B1B680B40AB
:101B60000BB1012000E000200CBD002221F07F42DB
:101B7000D3438382704730B5024600200023948807
:101B800001F0E06504EA154321F07F41948A0C409E
:101B900054B14BB1012008E00054004000127A001B
:101BA00040420F00A0860100002030BD002221F03D
:101BB0007F42D3438382704710B50446FE48844277
:101BC00008D10121C014FEF71FFE0021E014FEF72A
:101BD0001BFEC4E0B4F1804F08D101210846FEF796
:101BE00020FE00210120FEF71CFEB8E0F3488442ED
:101BF00008D101210220FEF714FE00210220FEF789
:101C000010FEACE0EE48844208D101210420FEF72A
:101C100008FE00210420FEF704FEA0E0E94884420B
:101C200008D101210820FEF7FCFD00210820FEF765
:101C3000F8FD94E0E448844208D101211020FEF729
:101C4000F0FD00211020FEF7ECFD88E0DF48844223
:101C500008D101212020FEF7E4FD00212020FEF71D
:101C6000E0FD7CE0DA48844208D101214014FEF70F
:101C7000CBFD00216014FEF7C7FD70E0D54884421B
:101C800009D10121C804FEF7BFFD00214FF4002057
:101C9000FEF7BAFD63E0D048844209D1012108056E
:101CA000FEF7B2FD00214FF48010FEF7ADFD56E0C7
:101CB000CA48844209D101214805FEF7A5FD00214B
:101CC0004FF40010FEF7A0FD49E0C548844208D15A
:101CD00001214020FEF7A5FD00214020FEF7A1FDD7
:101CE0003DE0C048844208D101218020FEF799FDE3
:101CF00000218020FEF795FD31E0BB48844208D1E9
:101D000001218015FEF78DFD0021A015FEF789FD4C
:101D100025E0B648844209D101210804FEF774FD8C
:101D200000214FF48030FEF76FFD18E0B048844288
:101D300009D101214804FEF767FD00214FF400306E
:101D4000FEF762FD0BE0AB48844208D10121880414
:101D5000FEF75AFD00214FF48020FEF755FD10BD1F
:101D600000220288944B98420ED0994B98420BD097
:101D7000B0F1804F08D0914B984205D0904B9842DB
:101D800002D0904B984204D14FF68F731A404B8883
:101D90001A438D4B984207D08C4B984204D04FF693
:101DA000FF431A40CB881A4302808B8883850B88B7
:101DB0000385814B98420BD0854B984208D08B4BC2
:101DC000984205D08A4B984202D08A4B984201D162
:101DD0000B7A038601238382704770B500240022AA
:101DE0000023058C4FF6FE7635400584028C8388EF
:101DF000048B4FF68F752C40B51E2C400D882C435C
:101E0000751E2A400D892A434D882A436A4DA842EF
:101E10000BD06F4DA84208D0744DA84205D0744D28
:101E2000A84202D0734DA84213D14FF6F7752A404D
:101E30004D892A434FF6FB752A408D882A434FF679
:101E4000FF652B404FF6FF552B408D892B43CD89E5
:101E50002B4383800483CD888586028470BD70B552
:101E6000002400220023058C4FF6EF7635400584D0
:101E7000028C8388048B48F6FF752C404FF6FF4593
:101E80002C400D884FF6FF7606EA05252C434FF6C9
:101E9000DF752A400D8906EA05152A434D8806EAB2
:101EA00005152A43444DA84202D0494DA8421DD1F0
:101EB0004FF67F752A404D894FF6FF7606EA0515E5
:101EC0002A434FF6BF752A408D8806EA05152A4336
:101ED0004FF6FF352B404FF2FF752B408D8906EAF8
:101EE00085052B43CD8906EA85052B438380048332
:101EF000CD880587028470BD70B5002400220023C0
:101F0000058C4FF6FF6635400584028C8388848BF0
:101F10004FF68F752C404FF6FC752C400D882C43E6
:101F20004FF6FF552A400D894FF6FF7606EA052544
:101F30002A434D8806EA05252A431F4DA84202D0B0
:101F4000234DA8421DD14FF2FF752A404D894FF60F
:101F5000FF7606EA05252A434FF6FF352A408D888D
:101F600006EA05252A434EF6FF752B404DF6FF7510
:101F70002B408D8906EA05152B43CD8906EA051508
:101F80002B4383808483CD888587028470BD70B5A0
:101F9000002200230024058C4EF6FF763540058490
:101FA000038C8488828B48F6FF752A404FF6FF45E4
:101FB0002A400D8820E00000002C01400004004071
:101FC00000080040000C00400010004000140040D9
:101FD00000340140004C01400050014000540140D9
:101FE00000180040001C004000200040004001405C
:101FF00000440140004801404FF6FF7606EA0525FF
:102000002A434DF6FF752B400D8906EA05352B4313
:102010004D8806EA05352B43FA4DA84202D0FA4D09
:10202000A84208D14BF6FF752C408D894FF6FF76FC
:1020300006EA85152C4384808283CD88A0F8405021
:10204000038470BD828B4FF2FF331A408283828BF0
:102050004FF6FF7303EA01231A4382837047F0B5FA
:102060000C461546002200210026078C4EF6FF7C08
:1020700007EA0C070784828B018C4FF6FF7707EA8B
:10208000043640F6FF473A404FF6FF7707EA052748
:102090003A434FF6FF7707EA03373A43D94FB8423E
:1020A0000ED0D94FB8420BD0B0F1804F08D0D74FE7
:1020B000B84205D0D64FB84202D0D64FB84206D16A
:1020C0004DF6FF77394046F48057394305E047F62F
:1020D000FF57394044F48057394382830184F0BD6F
:1020E000828B4FF6F3731A408283828B0A4382837A
:1020F0007047F0B50C461546002200210026078CDB
:102100004FF6FF6C07EA0C070784828B018C4FF6B1
:10211000FF7707EA04264FF60C773A404FF6FF7731
:1021200007EA03172F433A43B64FB8420ED0B64FD3
:10213000B8420BD0B0F1804F08D0B44FB84205D0B0
:10214000B34FB84202D0B34FB84206D14FF6FF5753
:10215000394046F48077394305E04FF2FF57394064
:1021600044F48077394382830184F0BD028B4FF2BF
:10217000FF331A400283028B4FF6FF7303EA0123F9
:102180001A4302837047F0B50C4615460022002121
:102190000026078C4FF6EF7C07EA0C070784028BBA
:1021A000018C4FF6FF7707EA041640F6FF473A40E6
:1021B0004FF6FF7707EA03373A434FF6FF7707EA10
:1021C00005273A438F4FB8420ED08F4FB8420BD0FD
:1021D000B0F1804F08D08D4FB84205D08C4FB84237
:1021E00002D08C4FB84206D14FF6DF77394046F027
:1021F0001007394305E04FF65F77394044F0100788
:10220000394302830184F0BD028B4FF6F3731A4009
:102210000283028B0A4302837047F0B50C461546D1
:1022200000220021068C4FF6FE773E400684028B8A
:10223000018C4FF60C7632407E1C06EA03162E43C4
:102240003243704EB0420ED06F4EB0420BD0B0F160
:10225000804F08D06D4EB04205D06D4EB04202D0D6
:102260006C4EB04206D14FF6FD76314044F0010687
:10227000314305E04FF6F576314044F00106314335
:1022800002830184F0BD70B505460C465D48854269
:102290000ED05D4885420BD0B5F1804F08D05B4829
:1022A000854205D05A48854202D05A48854200D11D
:1022B00000E000BF208850B92389A28861882846A1
:1022C000FFF7ABFFE1882846FFF79EFF25E0208857
:1022D00004280AD12389A28861882846FFF753FF82
:1022E000E1882846FFF742FF17E0208808280AD136
:1022F0002389A28861882846FFF7FBFEE1882846EB
:10230000FFF7EEFE09E02389A28861882846FFF7DF
:10231000A6FEE1882846FFF795FE70BD2DE9F04145
:1023200005460C4600260127608808B9022600E011
:102330000026A088012801D1022700E0012720887B
:10234000A0B92389A28861882846FFF766FFE18843
:102350002846FFF759FF23893A4631462846FFF7BA
:1023600012FFE1882846FFF701FF13E02389A288C6
:1023700061882846FFF707FFE1882846FFF7F6FE49
:1023800023893A4631462846FFF747FFE188284629
:10239000FFF73AFFBDE8F0810A884B881A438B8823
:1023A0001A43CB881A430B891A434B891A438B89EA
:1023B0001A43A0F8442070474FF6FF718180002136
:1023C0000180C180418001727047002101804180FD
:1023D0008180C180018141818181C181704700215B
:1023E00001804180012181800021C18001817047ED
:1023F0000021018041808180C180018141818181F2
:1024000070470000002C01400034014000040040EF
:1024100000080040000C004021B1028842F0010297
:10242000028004E002884FF6FE731A400280704773
:1024300031B1B0F8442042F40042A0F8442005E055
:10244000B0F84420C2F30E02A0F8442070471AB13D
:1024500083890B43838102E083898B4383817047A7
:102460008182704741EA0203A0F8483070471AB1F0
:1024700083890B43838102E083898B438381704787
:1024800001894FF6F8721140018170470A46002118
:1024900001894FF68F73194011430181704730B5A0
:1024A00004460D4629462046FFF7F0FF208940F0FC
:1024B0000700208130BD2DE9F04104460D46164647
:1024C0001F46602D06D13B46012231462046FFF7CC
:1024D0005AFE05E03B46012231462046FFF79DFEAD
:1024E00029462046FFF7D2FF208940F007002081CF
:1024F000BDE8F08130B50C4600210189C9B24FF624
:10250000FF7505EA0325154325432943018130BDA5
:102510002DE9F04105460E461746984600244346ED
:102520003A4631462846FFF7E5FF2C894FF6F8700A
:10253000044044F007044FF68F70044044F07004E8
:102540002C81BDE8F081F0B504460D4616461F46C5
:102550003B46324629462046FFF7CCFF208940F40F
:1025600080402081F0BD0185828270470A460021AB
:1025700001884FF68F731940114301807047F0B501
:102580000C4615461E460021002200230189028BBD
:10259000038C4FF6F877394021434FF6FC473A4019
:1025A00040F201173A434FF6DD773B404FF6FF7795
:1025B00007EA06172F433B43018102830384F0BDE2
:1025C0000A460021018B4FF68F7319401143018396
:1025D00070470A460021018B48F6FF7319404FF6F9
:1025E000FF7303EA02231943018370470A4600215F
:1025F000818B4FF68F7319401143818370470A46D0
:102600000021818B48F6FF7319404FF6FF7303EAF0
:10261000022319438183704721B1028842F080026E
:10262000028004E002884FF67F731A4002807047F0
:1026300021B1828842F00402828004E082884FF651
:10264000FB731A408280704721B1828842F00802F1
:10265000828004E082884FF6F7731A4082807047C8
:1026600021B1828842F00102828004E082884FF624
:10267000FE731A40828070470A460021018B4FF694
:10268000F77319401143018370470A460021018BFB
:102690004FF2FF7319404FF6FF7303EA0223194309
:1026A000018370470A460021818B4FF6F77319406A
:1026B0001143818370470A460021818B4FF2FF73DB
:1026C00019404FF6FF7303EA0223194381837047D1
:1026D0000A460021018B4FF6FB7319401143018319
:1026E00070470A460021018B4FF6FF3319404FF621
:1026F000FF7303EA02231943018370470A4600214E
:10270000818B4FF6FB7319401143818370470A4652
:102710000021818B4FF6FF3319404FF6FF7303EA18
:1027200002231943818370470A460021018B4FF62B
:102730007F7319401143018370470A460021018BC2
:10274000C1F30E014FF6FF7303EA0223194301831D
:1027500070470A460021818B4FF67F731940114361
:10276000818370470A460021818BC1F30E014FF629
:10277000FF7303EA02231943818370470A4600214D
:10278000018C4FF6FD7319401143018470470A46CE
:102790000021018C4FF6F7731940114301847047F3
:1027A0000A460021018C4FF6DF7319404FF6FF7384
:1027B00003EA02131943018470470A460021018C81
:1027C0004FF67F7319404FF6FF7303EA0213194364
:1027D000018470470A460021018C4FF6FF531940CF
:1027E0004FF6FF7303EA02231943018470470A4638
:1027F0000021018C4FF2FF7319404FF6FF7303EA7B
:1028000002231943018470470A460021018C4DF6CA
:10281000FF7319404FF6FF7303EA02331943018433
:10282000704730B5002301248C40A3B2048C9C4334
:102830000484048C02FA01F5ADB22C43048430BD4B
:1028400030B5002304248C40A3B2048C9C43048440
:10285000048C02FA01F5ADB22C43048430BD70B58E
:102860000346002000241846183001258D40ACB2E4
:102870001D8CA5431D8409B1082909D100EB610015
:10288000056825F0700505600568154305600EE0D4
:102890000D1FC5F34E052844056825F4E045056085
:1028A00005684FF6FF7606EA02263543056070BDDF
:1028B00021B1028842F00202028004E002884FF651
:1028C000FD731A400280704721B1028842F0040271
:1028D000028004E002884FF6FB731A4002807047C2
:1028E00021B1828842F08002828004E082884FF623
:1028F0007F731A408280704702884FF6F7731A4040
:10290000028002880A430280704782884FF68F73E4
:102910001A40828082880A438280704702894FF67B
:10292000F8731A40028102890A43028170470289C2
:102930004FF67F731A40028102890A430281704771
:102940008184704781857047818670470187704711
:1029500081877047A0F84010704702884FF6FF4308
:102960001A40028002880A43028070470146888E1E
:1029700070470146088F70470146888F70470146AF
:10298000B1F8400070470146888C70470146088DB9
:10299000704702460020138A0B400BB1012000E073
:1029A00000207047CA430282704730B502460020BB
:1029B00000230024158A05EA0103958905EA01042C
:1029C00013B10CB1012000E0002030BDCA430282E7
:1029D000704700000CB50020019000906C48006822
:1029E00040F480306A49086000BF6948006800F41C
:1029F000003000900198401C0190009818B901988F
:102A0000B0F5A06FF1D16248006800F4003010B159
:102A10000120009001E0002000900098012843D19F
:102A20005C48006840F010005A4908600846006899
:102A300020F0030008600846006840F002000860CB
:102A40005348406852494860084640684860084614
:102A5000406840F4806048600846406820F47C107C
:102A600048600846406840F4E8104860084600683E
:102A700040F08070086000BF4548006800F00070BA
:102A80000028F9D04248406820F0030040494860DF
:102A90000846406840F00200486000BF3C4840687B
:102AA00000F00C000828F9D10CBD10B5FFF792FF1B
:102AB00010BD10B53648006840F001003449086088
:102AC0000846406834490840314948600846006873
:102AD000324908402E4908600846006820F48020EA
:102AE00008600846406820F4FE0048604FF41F006C
:102AF0008860FFF7DAFF4FF000602949086010BDD9
:102B000010B5002100200022214B5B6803F00C016E
:102B100021B1042906D0082928D107E0214B224CF5
:102B2000236027E01F4B204C236023E0184B5B6899
:102B300003F47010164B5B6803F48032022303EB3E
:102B4000904022B9194B4343174C23600DE0104BC2
:102B50005B6803F4003323B1144B4343124C2360EE
:102B600003E0104B4343104C236003E00D4B0E4C2D
:102B7000236000BF00BF064B5B68C3F303130C4C1C
:102B8000E15C094B1B68CB40074C236010BD000083
:102B900000100240002002400000FFF8FFFFF6FE98
:102BA00008ED00E000127A002000002000093D003E
:102BB000240000208449854A116000201AE0002288
:102BC00000EB8003824901EBC3010A6100EB800343
:102BD0007F4901EBC3018A6100EB80037C4901EB73
:102BE000C301CA6100EB8003794901EBC3010A62AA
:102BF000411CC8B20328E2DB70472DE9FF4F87B0C4
:102C000082468B461546149C5946504609F051FFA2
:102C1000064694F82500012803D1304602F004FF4F
:102C200006460A9890B92946304609F048FF0690B2
:102C3000216909F0ECFE2061606980F00040069097
:102C4000D4E90402069902F059F9206194F82400AD
:102C500001280AD13046A16909F02BFF29460690C8
:102C600009F05FFF0746A66112E05946A06909F026
:102C700020FF2946069009F054FF074694F82500E6
:102C8000012803D1384602F0CFFE0746C4F818B039
:102C90003846E16909F00DFF294605904B48006868
:102CA00009F0B5FE01460390284609F03AFF04906A
:102CB000059909F004FF0690E16909F0A8FE804635
:102CC0004046E16909F0A3FE0590216A09F09FFEE4
:102CD0004049069009F0F3FE8146E0692062C4F89D
:102CE0001C8094F82500012818D14946E06809F0B5
:102CF000E6FE06902169A06809F0E1FE04903146E5
:102D0000606809F0DCFE0390049909F080FE0590EC
:102D1000069909F07CFE0BB0BDE8F08F594660685B
:102D200009F0CDFE06904946E06809F0C8FE04901F
:102D30002169A06809F0C3FE0290D4E9001009F0EF
:102D4000BEFE5146009009F0BAFE0190029909F0CA
:102D50005EFE0390049909F05AFE0590069909F069
:102D6000A8FED8E700EB8003194A02EBC302116109
:102D7000704710B5002405E000212046FFF7F2FF60
:102D8000601CC4B2032CF7DB10BD00EB8003104ABB
:102D900002EBC302916100EB80030D4A02EBC30218
:102DA000D16100EB80030A4A02EBC3021162704753
:102DB00010B5002405E000212046FFF7E6FF601C67
:102DC000C4B2032CF7DB10BD3661023C3800002092
:102DD0007C0300209FAAAA3E2DE9F04104460D463F
:102DE0004FF08041C048006809F063FE0646214666
:102DF0000AF0E2F80AD24FF08040BB490860BB49B4
:102E0000204609F05CFEBA4908601AE04FF08041A4
:102E1000B548006809F0FBFD064621460AF0C2F8F5
:102E20000AD24FF04040B0490860B049204609F04E
:102E300046FEAF49086004E00020AD490860AA4999
:102E40000860AC49AC48006809F039FE0746A8485C
:102E50000168384609F0DBFD0646A84909F061FE25
:102E6000A549086008460168284609F022FE054683
:102E7000BDE8F081F8B504460020A1490870A148DA
:102E800090F8E000012858D19F48806980F0004602
:102E90009E480168304609F012FE05469B4A1168BB
:102EA0009B4A106809F00BFE074696485C3000907C
:102EB00093480378224629463846FFF79EFE9549F7
:102EC0000860954A1168934A106809F0F2FD934929
:102ED00008608C4AD2F8F410904A10680AF06CF836
:102EE00008D2884AD2F8F4108B4A106809F08FFD96
:102EF000884908608348D0F8F40080F0004587488E
:102F0000016828460AF058F808D27E4AD2F8F41030
:102F1000814A106809F0CDFD7E4908607D4800684F
:102F20007D4908607749D1F8D40009F0DFFF0546F4
:102F300078490868294603F030FE724890F8E100AD
:102F4000012855D1714A51686F4AD06909F0B7FD1F
:102F500005466E4A51686E4A506809F0B0FD064653
:102F600068488430009066480378224629463046F7
:102F7000FFF743FE67494860674A5168654A5068F1
:102F800009F097FD654948605E4AD2F8F410634A3B
:102F900050680AF011F808D25A4AD2F8F4105E4A82
:102FA000506809F034FD5B4948605648D0F8F40099
:102FB00080F0004559484168284609F0FDFF08D2D5
:102FC000504AD2F8F410544A506809F072FD514941
:102FD000486050484068504948604A49D1F8D80094
:102FE00009F084FF05464B494868294603F0E9FD8E
:102FF000444890F8E200012875D1424890F8E50075
:10300000012814D1414881684548006809F057FDFE
:103010000646404988683146FFF7DEFE05464148CE
:103020008168284609F04BFD3D49086005E03848B5
:10303000806880F000403A490860344A9168324A1A
:10304000106A09F03CFD0546304881683448006844
:1030500009F035FD06462B48AC300090284803782F
:10306000224629463046FFF7C8FD2A4988602A4A89
:103070009168284A906809F01CFD28498860214A17
:10308000D2F8F410254A906809F096FF08D21D4A3C
:10309000D2F8F410204A906809F0B9FC1D49886004
:1030A0001848D0F8F40080F000451C488168284694
:1030B00009F082FF08D2134AD2F8F410164A906839
:1030C00009F0F7FC1349886012488068124988604B
:1030D0000C49D1F8DC0009F009FF05460D49886864
:1030E000294603F082FDF8BD580000203333B33E7B
:1030F0006000002000001C425C0000200000204214
:103100003400002020030020640400203C00002044
:10311000840D0020AC040020B8040020A00400208E
:1031200054000020480000202DE9F0474FF4A2721F
:10313000AF49B04809F040FCAE49086C09F003FF04
:1031400006460BF017FD044622460B460020AA490E
:1031500009F03EFE804609F009FFA8490860A5492C
:10316000D1F8E8004FF0804109F0DBFCA449086089
:10317000A049D1F8EC004FF0804109F0D2FCA04901
:1031800048609C49D1F8F0004FF0804109F0C9FC3B
:103190009B498860084601684FF07E5009F0C1FCE9
:1031A00098490860964841684FF07E5009F0B9FC94
:1031B00094494860924881684FF07E5009F0B1FC14
:1031C00090498860BDE8F08770B5FEF734F8342088
:1031D000FEF7CCFA8648FEF773F8042810D10024D5
:1031E0000AE0844A1159824AA018FEF739F90546C7
:1031F000042D00D003E0241DB4F5A27FF1D300BF5D
:10320000FEF725F8FFF790FF70BD70B504467848CB
:1032100005781CB97C48007885427DD07A480078D2
:103220007449087000204860002172488160C160C4
:1032300000207049086100216E48416181610020D1
:103240006C49C86100216B480162416200206949F4
:10325000886200216748C1620163002065494863B4
:10326000002164488163C1634FF07E506149086466
:1032700066484864002088646448C8640020086583
:10328000022081F85400624888654FF07E50C8657E
:103290006049584801665D4941665F498166002181
:1032A000C1665E490167002141678167C1670121ED
:1032B00080F88010002180F881104FF07E51C0F816
:1032C00084105749C0F888105049C0F88C105549EF
:1032D000C0F890100021C0F894105049C0F8981020
:1032E0000021C0F89C10C0F8A010C0F8A410012163
:1032F00080F8A810002180F8A9104FF07E51C0F886
:10330000AC104449C0F8B0104049C0F8B41042496C
:10331000C0F8B810002100E068E0C0F8BC103F49D8
:10332000C0F8C0100021C0F8C410C0F8C810C0F820
:10333000CC10012180F8D010002180F8D1103A483B
:103340002C49C1F8D400C1F8D800C1F8DC00002035
:1033500081F8E00081F8E10081F8E20081F8E30003
:1033600081F8E40081F8E500042081F8E6002F48A8
:10337000C1F8E800C1F8EC00C1F8F0002C48C1F831
:10338000F400012081F8F80081F8F90081F8FA00D2
:103390002848C1F8FC00C1F80001C1F80401264822
:1033A000C1F80801C1F80C01C1F810012348C1F8A7
:1033B00014012148C1F81801C1F81C011648C1F8D0
:1033C0002001C1F82401C1F828010020C1F82C0116
:1033D000C1F83001C1F834014FF07A50C1F838011A
:1033E000C1F83C01C1F84001FFF7EEFE70BD0000DE
:1033F00000F80308200300200000F03FE000002058
:103400003C00002048000020640000200000A04094
:1034100000803B4500002041CDCCCC3D00007A44EB
:1034200000002040CDCC4C3D00005C4200006041DB
:10343000DB0F493FC2B8323F368DA73F920A063FA5
:103440002DE9FE4396240020009001900290002573
:103450006FE004F058FB04F0F1FA8B49B1F9000079
:1034600009F025FD074689480168384609F021FB27
:103470000646874909F023FB864908608249B1F96D
:10348000020009F014FD074680484168384609F0FB
:1034900010FB06467E4909F012FB7E4948607A49D6
:1034A000B1F9040009F003FD074678488168384601
:1034B00009F0FFFA80F000467549304609F0FFFA3E
:1034C000744988600846806880F000470846406874
:1034D00080F00048394640460BF052F80646009905
:1034E00009F095FA00906B48806880F000476949C0
:1034F000086839460BF044F80646019909F087FA46
:103500000190204609F0D3FC06463146009809F0A8
:1035100008FB61490860204609F0C9FC06463146AF
:10352000019809F0FEFA5C494860022003F08BFE26
:103530006D1CA5428DDB58484168564801615648CC
:1035400000685449C860002152484161BDE8FE83CB
:103550002DE9F04F87B005460C4617461E46B86861
:1035600080F00048786880F00049414648460BF0FA
:1035700007F80490B86880F00048414638680AF0BF
:10358000FFFF05904549286809F099FA814604999A
:1035900009F03DFA8046424909F0C3FA28603F49E4
:1035A000686809F08CFA8146059909F030FA80467E
:1035B0003B4909F0B6FA6860706802906168686813
:1035C00009F077FA8246374909F079FA814610996D
:1035D000029809F074FA8246616809F018FA804688
:1035E000494609F014FA606060680BF0FFF9824602
:1035F000B16809F064FA8046606820F0004B5846D4
:103600000BF0ECF88246316809F059FA81464146E0
:1036100009F0FDF901902168286809F04AFA82460C
:10362000204909F04CFA80461099019809F047FAB0
:103630008246216809F0EBF98146414609F0E7F935
:10364000206060680BF0D2F98246316809F037FAE1
:103650008046606820F0004B58460BF0BFF8824669
:10366000B16809F02CFA8146414609F022FA03902C
:103670001099039809F023FA8046A16809F0C7F968
:10368000A06007B0BDE8F08FBE010020141A002032
:1036900057E79C3A64040020C40400200000C6429E
:1036A0000000C84217B751392DE9F04700241EE049
:1036B000204609F0FCFB0746324909F000FA0646AD
:1036C0004FF0894109F02DFA054628460BF08EF996
:1036D00081462D4909F0F3F9064609F034FC074606
:1036E0000BF03AF900B2294921F81400641CB4F532
:1036F000806FDDDBBDE8F0872DE9F047054600214E
:10370000284609F059FC1DD81E49284609F009FA37
:1037100080464FF0894109F0D2F9074609F0E6FBEF
:103720000446C01704EB90508012A4EB8026174982
:1037300031F9160009F0BBFB0446134909F0F1F911
:10374000BDE8F08785F000490E49484609F0E9F9DF
:1037500080464FF0894109F0B2F9074609F0C6FBEF
:103760000446C01704EB90508012A4EB8026074952
:1037700031F91610484209F09AFB0446024909F053
:10378000D0F9DDE7DB0FC94000FEFF46D004002082
:1037900070B5FE48D0F820114FF0804009F08FF945
:1037A0000546FB4909F08BF9044621464FF07E504F
:1037B00009F02DF9054629464FF07E5009F0B1F980
:1037C000F449086021464FF07E5009F020F9054683
:1037D00029464FF07E5009F0A4F9EE494860214691
:1037E0004FF07E5009F013F9054621464FF07E5008
:1037F00009F05FF90646294609F093F9E549886022
:103800000020C8600861E148D0F824114FF08040E2
:1038100009F055F90546DE4909F051F904462146FB
:103820004FF07E5009F0F3F8054629464FF07E50E0
:1038300009F077F9D749486121464FF07E5009F0E9
:10384000E6F8054629464FF07E5009F06AF9D1495D
:10385000886121464FF07E5009F0D9F8054621468F
:103860004FF07E5009F025F90646294609F059F92E
:10387000C849C8610021C74801624162C348D0F805
:1038800028114FF0804009F01AF90546C04909F0A7
:1038900016F9044621464FF07E5009F0B8F8054667
:1038A00029464FF07E5009F03CF9BA49886221461A
:1038B0004FF07E5009F0ABF8054629464FF07E5098
:1038C00009F02FF9B349C86221464FF07E5009F044
:1038D0009EF8054621464FF07E5009F0EAF806466C
:1038E000294609F01EF9AB490863AB49A948416371
:1038F0008163A648D0F82C114FF0804009F0DFF822
:103900000546A64909F0DBF8044621464FF07E50F3
:1039100009F07DF8054629464FF07E5009F001F97F
:103920009C49C86321464FF07E5009F070F8054667
:1039300029464FF07E5009F0F4F896490864214674
:103940004FF07E5009F063F8054621464FF07E5057
:1039500009F0AFF80646294609F0E3F88D494864B6
:1039600000218C488164C1648848D0F830114FF040
:10397000804009F0A4F80546884909F0A0F80446FB
:1039800021464FF07E5009F042F8054629464FF097
:103990007E5009F0C6F87F49086521464FF07E50F9
:1039A00009F035F8054629464FF07E5009F0B9F880
:1039B0007849486521464FF07E5009F028F80546C1
:1039C00021464FF07E5009F074F80646294609F06A
:1039D000A8F87049886500216E48C16501666B488A
:1039E000D0F834114FF0804009F069F805466B4972
:1039F00009F065F8044621464FF07E5009F007F8BB
:103A0000054629464FF07E5009F08BF8614948661B
:103A100021464FF07E5008F0FAFF054629464FF048
:103A20007E5009F07EF85B49886621464FF07E5053
:103A300008F0EDFF054621464FF07E5009F039F8B9
:103A40000646294609F06DF85249C86600215148DA
:103A5000016741674D48D0F838114FF0804009F0B8
:103A60002EF805464D4909F02AF8044621464FF044
:103A70007E5008F0CCFF054629464FF07E5009F0F5
:103A800050F84449886721464FF07E5008F0BFFF48
:103A9000054629464FF07E5009F043F83D49C86776
:103AA00021464FF07E5008F0B2FF054621464FF008
:103AB0007E5008F0FEFF0646294609F032F83549E7
:103AC000C1F8800000213348C0F88410C0F8881085
:103AD0002E48D0F83C114FF0804008F0F0FF05462A
:103AE0002E4908F0ECFF044621464FF07E5008F0C6
:103AF0008EFF054629464FF07E5009F012F8254901
:103B0000C1F88C0021464FF07E5008F080FF05463A
:103B100029464FF07E5009F004F81E49C1F8900084
:103B200021464FF07E5008F072FF054621464FF0C7
:103B30007E5008F0BEFF0646294608F0F2FF154900
:103B4000C1F8940000211348C0F89810C0F89C10E8
:103B50000E48D0F840114FF0804008F0B0FF054605
:103B60000E4908F0ACFF044621464FF07E5008F0A5
:103B70004EFF054629464FF07E5008F0D2FF05491A
:103B8000C1F8A00021464FF07E5009E0200300203C
:103B90000000FA43D00C00206DE71CC10000484231
:103BA00008F035FF054629464FF07E5008F0B9FF72
:103BB0001D49C1F8A40021464FF07E5008F027FFB0
:103BC000054621464FF07E5008F073FF0646294611
:103BD00008F0A7FF1449C1F8A80000211248C0F856
:103BE000AC10C0F8B01070BD2DE9F04705460C468A
:103BF0002169A06808F063FF8046E168606808F00A
:103C00005EFF81462846216808F059FF82464946F2
:103C100008F0FDFE0746414608F04BFF0646E5600A
:103C200026613046BDE8F087D00C00202DE9F04F2A
:103C300087B08246FE480168504608F072FF82460F
:103C4000FC49504608F03BFF0446FB49FB4800682E
:103C500008F035FF0546214608F0D9FE8246F748B0
:103C6000C0F800A04FF07E51504608F022FF0190AE
:103C700009F069F921F00041CDE902010AF07AFF6B
:103C800080468946EE48006809F05DF942464B4699
:103C9000CDE9040109F02AF806460022E94B09F0B3
:103CA00022F8044609F062F983464FF07E52002163
:103CB00001F024F9E449086007B0BDE8F08F2DE970
:103CC000FF4F8DB08B4692468AF00048404609F07F
:103CD0003AF904460D468BF00048404609F033F9A6
:103CE00022462B46CDE900010AF08AFB064609F080
:103CF0003DF90C908AF00040019009F024F9064645
:103D00000F460D9809F01FF9804632463B460AF0EF
:103D100077FB044609F02AF90B900C980AF05EFD37
:103D20000A900C980AF062FE09900B980AF056FD72
:103D300008900B980AF05AFE07904FF07E500690BC
:103D400000200590059880F00044204606990AF06E
:103D500017FC04904FF07C510C9808F0B0FE04461C
:103D60000AF03CFD0A904FF07C510C9808F0A7FE39
:103D700004460AF03BFE09904FF07C510B9808F086
:103D80009EFE04460AF02AFD08904FF07C510B98E5
:103D900008F095FE04460AF029FE07904FF07C518A
:103DA000049808F08CFE04460AF018FD03904FF0CA
:103DB0007C51049808F083FE04460AF017FE029036
:103DC0000799099808F07BFE0646029908F077FEED
:103DD000044608990A9808F072FE0646039908F00E
:103DE0006EFE0546214608F012FE984908600799C4
:103DF0000A9808F064FE0646029908F060FE044640
:103E0000DDE9081008F05BFE0646039908F057FE4E
:103E10000546214608F04DFE8D490860DDE9081091
:103E200008F04DFE0646029908F049FE044607993F
:103E30000A9808F044FE0646039908F040FE05463D
:103E4000214608F0E4FD834908600799099808F0C5
:103E500036FE0646039908F032FE044608990A9891
:103E600008F02DFE0646029908F029FE0546214677
:103E700008F01FFE7849086074480168006808F07F
:103E80001EFE76490860724801687048006808F0B4
:103E900016FE734908606F4801686C48006808F0B6
:103EA0000EFE704908606C4801686848006808F0B8
:103EB00006FE6D49086066480168006808F0FFFD6D
:103EC0006A490860634801686148006808F0F7FDC6
:103ED00067490860604801685D48006808F0EFFDC8
:103EE000644908605B480168006808F0E8FD6249C1
:103EF0000860594801685748006808F0E0FD5F49CC
:103F0000086055480168006808F0D9FD5C49086000
:103F100011B0BDE8F08F0FB59FB05A48007858B97E
:103F2000DDE92701CDE9000124A90EC92298FFF798
:103F3000C6FE01205349087052480078012875D107
:103F40004FF07C512A9808F0BAFD4F490860259936
:103F5000084608F0B4FD08902499084608F0AFFD23
:103F600006902299084608F0AAFD0590069908F0E7
:103F70004EFD0790089908F04AFD099008F0E3FF0C
:103F8000CDE90A010AF0F6FDCDE90C0108F0EEFFDB
:103F90001E9000211E9809F005F848D01E98FFF7E2
:103FA00045FE3A48406C0D90274801680D9808F08E
:103FB00086FD374908603548806C0D9022480168BD
:103FC0000D9808F07CFD334908604FF07E501E9933
:103FD00008F0A7FD1D901D99229808F070FD229011
:103FE0001D99249808F06BFD24901D99259808F0E0
:103FF00066FD25901B4801681E48006808F059FDC1
:104000004FF080410D9008F05AFD17901B48016851
:104010001348006808F0FBFC4FF080410D9008F059
:104020004EFD1690114801680C4835E0FEE3D3E0E0
:10403000B4010020CDCCCC3D6666663FE800002090
:10404000E00000200000F03FE4000020A00000207D
:10405000A4000020A8000020AC000020B000002038
:10406000B4000020B8000020BC000020C0000020E8
:10407000C4000020C8000020CC000020D000002098
:10408000D4000020DC000020D80000202003002005
:10409000980000209C000020006808F00AFD0C90A9
:1040A000FE4801680C9808F004FD0D90FC4801687A
:1040B0000D9808F0ACFC15902499159808F0FFFCB9
:1040C0000D902599169808F0FAFC0C900D9908F0BF
:1040D000F0FCF44908602599179808F0F0FC0D9061
:1040E0002299159808F0EBFC0C900D9908F0E1FC72
:1040F000ED4908602299169808F0E1FC0D9024998A
:10410000179808F0DCFC0C900D9908F0D2FCE749F8
:104110000860E7480168E348006808F0D0FC0D90AB
:104120001F9908F074FC1F90E1480168DE480068A0
:1041300008F0C5FC0D90209908F069FC2090DC483F
:104140000168DA48006808F0BAFC0D90219908F07F
:104150005EFC21900021D748006808F02DFF3BD27B
:10416000D4480168CF48006808F0A9FC0D90D248F7
:1041700001680D9808F04BFCCF490860CD480168F4
:10418000C948006808F09BFC0D90CC4801680D9868
:1041900008F03DFCC9490860C6480168C34800688A
:1041A00008F08DFC0D90C64801680D9808F02FFCB2
:1041B000C3490860C04801681F9808F028FC1F9098
:1041C000BE480168209808F022FC2090BC48016895
:1041D000219808F01CFC21902899084608F06FFCF3
:1041E00008902799084608F06AFC06902699084628
:1041F00008F065FC0590069908F009FC07900899FD
:1042000008F005FC099008F09EFECDE90A010AF0CD
:10421000B1FCCDE90C0108F0A9FE1E9029980128F7
:104220007ED100211E9808F0BDFE79D04FF07E505F
:104230001E9908F076FC1D901D99269808F03FFC09
:1042400026901D99279808F03AFC27901D992898E8
:1042500008F035FC28909B4801689B48006808F0EE
:10426000D6FB0A90289908F02AFC0C909748016820
:104270009748006808F01DFC0890279908F01FFC7B
:104280000A90864801684FF07C5008F012FC0790B5
:1042900083480168079808F00CFC0890269908F0FC
:1042A0000EFC09900A9908F0B2FB0B900C9908F0EB
:1042B000AEFB4FF080410D9008F001FC1C9085484A
:1042C00001688548006808F0F4FB0A90289908F016
:1042D000F6FB0C90814801684FF07C5008F0E9FB38
:1042E00007906F480168079808F0E3FB089027994A
:1042F00008F0E5FB0A90754801687548006808F009
:1043000086FB0890269908F0DAFB09900A9908F0D4
:104310007EFB0B900C9908F07AFB4FF0804100E097
:104320007BE10D9008F0CBFB1B906C4801684FF0CF
:104330007C5008F0BEFB099058480168099808F0C5
:10434000B8FB0A90289908F0BAFB0C906148016804
:104350006148006808F05BFB0890279908F0AFFB04
:104360000A90584801685848006808F0A2FB089075
:10437000269908F0A4FB09900A9908F048FB0B90D5
:104380000C9908F044FB4FF080410D9008F097FB2A
:104390001A901B99084608F092FB08901C99084651
:1043A00008F08DFB0790089908F031FB099008F0A0
:1043B000CAFDCDE90A010AF0DDFBCDE90C0108F0E8
:1043C000D5FD19901A9818903E4801683E4800683B
:1043D00008F06FFB0A90189908F071FB0C902F48B9
:1043E00001684FF07C5008F064FB09902C4801688C
:1043F000099808F05EFB0A90199908F060FB0B9091
:104400000C9908F004FB4FF080410D9008F057FB29
:104410001490314801682F48006808F0F8FA0A90B3
:10442000189908F04CFB0C9028480168284800684F
:1044300008F03FFB0A90199908F041FB0B900C998A
:1044400008F0E5FA4FF080410D9008F038FB13902A
:10445000224801684FF07C5008F02BFB09900F4870
:104460000168099808F025FB0A90189908F027FBC5
:104470000C90154801681348006808F0C8FA0A90C3
:10448000199908F01CFB0B900C9908F0C0FA4FF03A
:1044900080410D9008F013FB129021E0CC00002029
:1044A000D4000020680000206C0000207000002074
:1044B000980000209C00002074000020780000205C
:1044C0007C000020B8000020C8000020BC000020B4
:1044D000C4000020B4000020D0000020C000002054
:1044E0001399289808F0EBFA0D901299279808F084
:1044F000E6FA0C900D9908F0DCFAFE490860129972
:10450000269808F0DCFA0D901499289808F0D7FA4C
:104510000C900D9908F0CDFAF74908601499279886
:1045200008F0CDFA0D901399269808F0C8FA0C906F
:104530000D9908F0BEFAF1490860F148C06C0146D7
:104540000C90EC48006808F0BAFA0D901F9908F03A
:104550005EFA1F90EA48C06C01460C90E64800687D
:1045600008F0ADFA0D90209908F051FA2090E44837
:10457000C06C01460C90E148006808F0A0FA0D906C
:10458000219908F044FA2190DD48006D00210D903A
:1045900008F012FD41D2DA48006D01460C90D54872
:1045A000006808F08CFA0D90D64801680D9808F064
:1045B0002EFAD4490860D248006D01460C90CE48CE
:1045C000006808F07CFA0D90CF4801680D9808F05B
:1045D0001EFACD490860CA48006D01460C90C748D4
:1045E000006808F06CFA0D90C84801680D9808F052
:1045F0000EFAC6490860C34801681F9808F007FA18
:104600001F90C1480168209808F001FA2090BF4827
:104610000168219808F0FBF92190BD4821990068B4
:1046200008F04DFA0C90BB482099006808F047FA52
:104630000A90B948006880F0004008901F9908F07F
:104640003EFA09900A9908F034FA0B900C9908F098
:1046500030FA0D90B14801680D9808F030FA1190C9
:10466000AB482099006808F02AFA0C90A9482199D3
:10467000006808F024FA0A90A94801681F9808F019
:104680001EFA09900A9908F0C2F90B900C9908F0EB
:1046900010FA0D90A14801680D9808F010FA1090DA
:1046A0009B4801681F9808F00AFA0C909A482199D3
:1046B000006808F004FA0A9099482099006808F008
:1046C000FEF909900A9908F0F4F90B900C9908F09A
:1046D0009EF90D90914801680D9808F0F0F90F903F
:1046E0008C4801681F9808F0EAF90C908A482099D4
:1046F000006808F0E4F90A9089482199006808F0F8
:10470000DEF909900A9908F082F90B900C9908F0EB
:10471000D0F90D90814801680D9808F0D0F90E90FD
:104720007F481199006808F072F97D4908607A485D
:104730001099006808F06BF97749086075480F997F
:10474000006808F064F97349086071480E990068C0
:1047500008F05DF96E49086008460168006808F0D5
:10476000AEF906906B480168006808F0A8F904905B
:1047700069480168006808F0A2F902906848016879
:10478000006808F09CF90190029908F040F9039044
:10479000049908F03CF90590069908F038F907905B
:1047A00008F0D1FBCDE908010AF0E4F902460B4616
:1047B000CDE90A0100205B4908F00AFBCDE90C01B4
:1047C00008F0D4FB1D9056481D99006808F077F951
:1047D0005349086050481D99006808F070F94E4927
:1047E00008604C481D99006808F069F9494908605B
:1047F00047481D99006808F062F945490860484833
:104800000168006808F05BF94749086042480168A0
:104810004348006808F053F9444908603D4801687E
:104820003F48006808F04BF9414900E0C0E00860EB
:10483000374801683A48006808F041F93D49086086
:1048400035480168006808F03AF93B49086031488A
:1048500001683148006808F032F9384908602C488E
:1048600001682D48006808F02AF935490860294890
:104870000168006808F023F932490860244801689B
:104880002448006808F01BF92F4908602048016897
:10489000006808F014F92D4908602748016822488B
:1048A000006808F006F90A90264801680A9808F09E
:1048B00000F90B90254801680B9808F0A8F80D90B6
:1048C000214801681948006808F0A1F84FF08041BC
:1048D0000B9008F0F4F80C900D9909F051FE1C496A
:1048E0008861134801681648006808F0E2F84FF044
:1048F00080412FE0800000208400002088000020FC
:10490000200300208C000020900000209400002054
:10491000AC000020A8000020A4000020D800002047
:10492000A00000200000F03FB0000020B4000020F4
:10493000B8000020BC000020C0000020C4000020FF
:10494000C8000020CC000020D0000020D4000020AF
:10495000640400200C9008F0B2F80D9009F0AEFB52
:1049600080F000411348C161134801681348006892
:1049700008F04DF80A90124801680A9808F099F872
:104980000B90104801680B9808F093F80D900E48B2
:1049900001680E48006808F03AF84FF080410B902B
:1049A00008F08DF80C900D9909F0EAFD01490862B4
:1049B00023B000BD64040020C0000020B00000202F
:1049C000CC000020D4000020BC000020C400002047
:1049D00070B5FE480078012826D100240AE0204660
:1049E00002F01BFB054608F06BFAF94941F8240078
:1049F000601CC4B2032CF2DBF64A916DF44A1068D5
:104A000008F057F8F2490860F24A916DF04A506890
:104A100008F04FF8EE494860EE4A916DEC4A906814
:104A200008F047F8EA498860002405E0EA48005D9C
:104A3000EA490855601CC4B2032CF7DB00243EE0B1
:104A4000E34951F82400E64908F0ACFA0ED8E049F1
:104A500051F82400E34908F0AFFA07D80020DC49F8
:104A600041F824000120DC49085526E00020DA49FD
:104A70000855D74951F82400002108F09DFA0ED2BC
:104A8000D34951F82400D64908F013F805464FF0F1
:104A90007E5108F014F8CE4941F824000DE0CC49CD
:104AA00051F82400CE4907F0B2FF05464FF07E5181
:104AB00008F005F8C64941F82400601CC4B2032C74
:104AC000BEDBC3490868C84907F0F9FFC049086060
:104AD0004868C64907F0F3FFBD4948608868C24985
:104AE00007F0EDFFBA498860BA4890F8F80001284D
:104AF0004BD10868002108F05FFA1AD8B54AD2F8FD
:104B00000C11BB4A106808F04DFA12D8B14AD2F81D
:104B1000FC10AF4A106807F0D2FF0646B54907F00F
:104B2000CEFF0546B2480168284607F070FFB0493D
:104B30000860A7490868002108F034FA1DD2A5488A
:104B4000D0F8080180F00045A9480168284608F01F
:104B500029FA12D89F4AD2F8FC109D4A106807F033
:104B6000AEFF0646A34907F0AAFF0546A048016824
:104B7000284607F04CFF9E4908609D4908689E49F9
:104B8000FFF732F89A49086020E09149086800214F
:104B900008F012FA09D88F4AD2F80C118C4A106822
:104BA00007F08DFF9249086008E08A4AD2F80811A0
:104BB000874A106807F083FF8D4908608C490868B0
:104BC0008D493C31FFF710F8894908608148D0F8D9
:104BD000180180F000457F49D1F80C21844908680C
:104BE000294600F08BF9824908607A4890F8F9006C
:104BF00001284DD176494868002108F0DDF91AD81E
:104C0000744AD2F814117A4A506808F0CBF912D8D5
:104C1000704AD2F800116E4A506807F050FF0646FD
:104C2000744907F04CFF054671484168284607F073
:104C3000EEFE6F49486066494868002108F0B2F905
:104C40001DD26448D0F8100180F0004568484168E2
:104C5000284608F0A7F912D85E4AD2F800115C4A3B
:104C6000506807F02CFF0646624907F028FF05460A
:104C70005F484168284607F0CAFE5D4948605C49C4
:104C800048685D491431FEF7AFFF5949486025E097
:104C90004F494868002108F08FF908D84D4AD2F8EA
:104CA00014114B4A506807F00AFF514948604849BF
:104CB0004868002108F076F908D2464AD2F8101167
:104CC000434A506807F0FBFE494948604849486834
:104CD00049495031FEF788FF454948603D48D0F8C2
:104CE000100180F000453B49D1F814214049486843
:104CF000294600F003F93E494860364890F8FA002A
:104D000001284DD132498868002108F055F91AD898
:104D1000304AD2F81C11364A906808F043F912D88C
:104D20002C4AD2F804112A4A906807F0C8FE0646B9
:104D3000304907F0C4FE05462D488168284607F033
:104D400066FE2B49886022498868002108F02AF90C
:104D50001DD22048D0F8180180F000452448816811
:104D6000284608F01FF912D81A4AD2F80411184A36
:104D7000906807F0A4FE06461E4907F0A0FE05460F
:104D80001B488168284607F042FE19498860184987
:104D9000886819492831FEF727FF154988603DE0EA
:104DA0000B498868002108F007F908D8094AD2F8A9
:104DB0001C11074A906807F082FE0D49886004497B
:104DC0008868002108F0EEF821D217E030010020B9
:104DD000900D002020030020EC000020EF000020B8
:104DE0000000C0410000C0C16F12833A6F1283BA45
:104DF000840D00200AD7A33C0C0D00200F4AD2F8E6
:104E000018110F4A906807F05AFE0E4988600D4944
:104E100088680D49FEF7E8FE0A4988600748D0F81F
:104E2000180180F000450549D1F81C210549886822
:104E3000294600F063F80349886070BD2003002014
:104E4000900D0020840D0020700D0020704710A0F0
:104E500000F0A0FF00BFFEE711A000F09BFF00BF25
:104E6000FEE718A000F096FF00BFFEE71CA000F0D0
:104E700091FF00BFFEE770477047704710B505F01F
:104E80001FFF10BD10B54FF48020FCF7ACF910BD2A
:104E90000A48415244204641554C542121210A00E0
:104EA0000A4D454D4F5259204D414E4147454D45C4
:104EB0004E5420455843455054494F4E2121210A14
:104EC000000000000A425553204641554C542045ED
:104ED0005843455054494F4E2121210A00000000FB
:104EE0000A5553414745204641554C5420455843A7
:104EF000455054494F4E2121210A000070B5064605
:104F00000D4614462946304608F04CF801D2284692
:104F100070BD2146304608F04FF801D22046F7E731
:104F20003046F5E72DE9F04705460E46DDE9087CF9
:104F3000002007E04FF0000823F8108000F101087E
:104F400008F0FF0005FB02F88045F3DC002027E0B5
:104F500000241FE0002117E000FB021833F918803D
:104F600000FB064937F9199004FB021A3CF91AA014
:104F700009FB0A880FFA88F800FB021923F8198048
:104F800001F1010808F0FF019142E5DB04F101089D
:104F900008F0FF04B442DDDB00F1010808F0FF0077
:104FA000A842D5DBBDE8F08710B5044600212046B5
:104FB00008F002F805D84FF07C51204607F027FD95
:104FC00010BD4FF07C51204607F073FDF8E770B537
:104FD0000446FBF7BDF80546FE4800682044A84299
:104FE00003D908F0C9FA06210160FA480068204494
:104FF000F8490860002070BD1FB5D2B00020519064
:105000002AE0002134AA519842F8201037AA51987A
:1050100042F820103AAA519842F8201043AA519819
:1050200042F8201046AA519842F8201049AA5198F7
:1050300042F820104CAA519842F8201000225898AB
:10504000801D519920F811205199589820F811206D
:105050005198401CC0B2519051980228D1DD0020D7
:10506000319032903390509066E10020519099E059
:10507000509800EB4001529800EB8101519851F893
:1050800020000C90509800EB4001529800EB8101F9
:10509000519851F820000B900C9907F010FD0EAAC2
:1050A000519942F82100509800EB4001529800EBD2
:1050B0008101519851F820004CA90C90519851F859
:1050C00020000B900C9907F0A2FC4CAA519942F8D1
:1050D00021000EA9519851F8200049A90C9051982F
:1050E00051F820000B900C9907F091FC49AA5199B6
:1050F00042F82100509800EB4001529800EB8101EA
:10510000519851F820000EA90B90519851F82000A9
:105110000A900B9907F0D3FC46A90C90519851F8CE
:10512000200001460B900C9807F071FC46AA51999B
:1051300042F82100509800EB4001529800EB8101A9
:10514000519851F8200000210C9007F035FF01D252
:10515000012000E0002000EB4001589800EB4101E5
:10516000519831F81000401C84B2509800EB400177
:10517000529800EB8101519851F8200000210C90C9
:1051800007F01AFF01D2012000E0002000EB4001EF
:10519000589800EB4101519821F810405198401C5B
:1051A000C0B25190519802287FF762AF509800EB3F
:1051B0004001529800EB810040680B90509800EB42
:1051C0004001529850F821000A900B9907F077FCA3
:1051D0000C90339907F01BFC3390509800EB400182
:1051E000529800EB810080680B90509800EB4001D2
:1051F000529850F821000A900B9907F060FC0C902F
:10520000329907F004FC3290509800EB400152981C
:1052100000EB810080680B90509800EB40015298A1
:1052200000EB810040680A900B9907F048FC0C9055
:10523000319907F0ECFB3190509800EB4001529807
:1052400000EB810040680B900E980A900B9907F0D4
:1052500036FC0C903B9801460B900C9807F0D7FB5E
:105260003B90509800EB4001529800EB8100806821
:105270000B900E980A900B9907F021FC0C903C982B
:1052800001460B900C9807F0C2FB3C90509800EB45
:105290004001529850F821000B900F980A900B99FA
:1052A00007F00DFC0C90379801460B900C9807F016
:1052B000AEFB3790509800EB4001529800EB810014
:1052C00080680B900F980A900B9907F0F8FB0C90F0
:1052D000399801460B900C9807F099FB399050983B
:1052E00000EB4001529850F821000B9010980A9062
:1052F0000B9907F0E4FB0C90349801460B900C9846
:1053000007F085FB3490509800EB4001529800EB79
:10531000810040680B9010980A900B9907F0CFFB22
:105320000C90359801460B900C9807F070FB359067
:105330005098401C80B25090539950988842FFF684
:1053400094AE539807F0BCFD01460C904FF07E5090
:1053500007F0E7FB0D900020519027E04CA95198F1
:1053600051F820000C900D9907F0A9FB43AA519920
:1053700042F8210049A9519851F820000C900D994C
:1053800007F09DFB40AA519942F8210046A9519887
:1053900051F820000C900D9907F091FB3DAA51990E
:1053A00042F821005198401CC0B2519051980228F7
:1053B000D4DD0D99339807F082FB30900D99329827
:1053C00007F07DFB2F900D99319807F078FB2E9018
:1053D0003B9801E0F40000200C900D9907F06FFB62
:1053E00029903C980C900D9907F069FB2D90379807
:1053F0000C900D9907F063FB2C9039980C900D9947
:1054000007F05DFB2B9034980C900D9907F057FB3B
:105410002A9035980C900D9907F051FB28904198EF
:105420000B9040980A900B9907F0F1FA0C90429873
:1054300001460B900C9807F0EAFA15904FF07C505B
:10544000159907F03CFB14903D980A902C9907F0B1
:10545000DEFA0B902A9907F0DAFA4FF041410C90EE
:1054600007F02DFB13903E9801460A90299807F00B
:10547000CEFA0B90289907F0CAFA4FF041410C90F0
:1054800007F01DFB12902B992D9807F0C0FA0B9096
:105490003F9801460A900B9807F0B9FA4FF0414146
:1054A0000C9007F00CFB1190002051901AE043A9DA
:1054B000519851F820101FAA42F820101FA95198A6
:1054C00051F820000C90519851F820000B900C9945
:1054D00007F0F5FA1CAA519942F821005198401C96
:1054E000C0B2519051980228E1DD1D980B901C9894
:1054F0000A900B9907F08BFA0C901E9801460B90BE
:105500000C9807F084FA279021980990014608909A
:1055100007F0D5FA0B90209807900146069007F007
:10552000CEFA09901F9807900146069007F0C7FA37
:105530000890099907F06BFA0A900B9907F067FA3F
:105540004FF040410C9007F0BAFA26902699159832
:1055500007F05DFA0C90279907F059FA22902299EA
:10556000279807F0A6FA4FF07C510C9007F0A7FAA5
:1055700025902599149807F04AFA249022992798A3
:1055800007F097FA0A90269907F041FA0B901599BF
:1055900007F03DFA4FF082410C9007F090FA23900B
:1055A00000204F9000BF0020519047E01FA9519864
:1055B00051F82000014607904FF0804007F07FFA35
:1055C00043A90890519851F8200001460790089887
:1055D00007F075FA1CA90990519851F8200001466E
:1055E0000890099807F068FA40A90A90519851F874
:1055F0002000014609900A9807F009FA4FF083410C
:105600000B9007F05CFA0C90239907F000FA16AAA9
:10561000519942F8210016A9519851F82000002113
:105620000C9007F0BFFC05D14FF07E5216A951989F
:1056300041F820205198401CC0B251905198022846
:10564000B4DD4498049020980390049907F037FA49
:1056500006904598029021980190029907F02FFA40
:10566000049040980290249907F0D1F9039004998E
:1056700007F01FFA0590069907F01BFA07901F988C
:1056800001460690079807F01AFA09901C9880F0D6
:1056900000400490259907F00CFA059043980146C4
:1056A0000490059807F00BFA0790219803902F9922
:1056B00007F005FA059020980390309907F0FFF95C
:1056C0000490059907F0A3F90690079907F09FF950
:1056D0000890099907F09BF94FF083410A9007F071
:1056E000EEF90B90139907F092F90C901698014679
:1056F0000B900C9807F015FA80F00040199045982F
:10570000049021980390049907F0D9F906904398E2
:1057100002901F980190029907F0D1F904904198E6
:105720000290249907F073F90390049907F0C1F9E6
:105730000590069907F0BDF907902098014606905C
:10574000079807F0BCF909901D9880F0004004907C
:10575000259907F0AEF90590449801460490059804
:1057600007F0ADF90790219803902E9907F0A7F95B
:1057700005901F980390309907F0A1F904900599BE
:1057800007F045F90690079907F041F90890099943
:1057900007F03DF94FF083410A9007F090F90B9024
:1057A000129907F034F90C90179801460B900C9859
:1057B00007F0B7F980F000401A90449804902098C0
:1057C0000390049907F07BF90690439802901F9884
:1057D0000190029907F073F904904298029024997D
:1057E00007F015F90390049907F063F905900699FD
:1057F00007F05FF90790219801460690079807F097
:105800005EF909901E9880F000400490259907F0F9
:1058100050F90590459801460490059807F04FF916
:105820000790209803902E9907F049F905901F984A
:1058300003902F9907F043F90490059907F0E7F8D2
:105840000690079907F0E3F80890099907F0DFF848
:105850004FF083410A9007F032F90B90119907F04D
:10586000D6F80C90189801460B900C9807F059F94F
:1058700080F000401B900020519024E019A951981D
:1058800051F820001FA90C90519851F820000B905E
:105890000C9907F0BCF81FAA519942F821001FA9E2
:1058A000519851F820000C90519851F820000B901D
:1058B0000C9907F004F91CAA519942F8210051985B
:1058C000401CC0B2519051980228D7DD1D980B9012
:1058D0001C980A900B9907F09AF80C901E980146B4
:1058E0000B900C9807F093F8279045980990219811
:1058F0000890099907F0E3F80B90449807902098D6
:105900000690079907F0DBF80990439807901F98D5
:105910000690079907F0D3F80890099907F077F8EF
:105920000A900B9907F073F84FF040410C9007F084
:10593000C6F826902699159807F069F80C902799D3
:1059400007F065F822902299279807F0B2F84FF0F7
:105950007C510C9007F0B3F825902599149807F026
:1059600056F824902299279807F0A3F80A902699D0
:1059700007F04DF80B90159907F049F84FF0824168
:105980000C9007F09CF823904F98401C80B24F90E9
:105990004F983228FFF607AE54994F98884221DA83
:1059A0001B9809900146089007F089F80B901A9807
:1059B00007900146069007F082F809901998079021
:1059C0000146069007F07BF80890099907F01FF848
:1059D0000A900B9907F01BF80C90559907F0ECFA18
:1059E000FFF4E1AD002051900BE01FA9519851F850
:1059F00020205199599840F821205198401CC0B25C
:105A0000519051980228F0DD229807F09CFACDE9D8
:105A1000080109F0AFF8CDE90A0107F0A7FA5A9991
:105A200008604F9856B010BD10B504468549204611
:105A300007F0C2FA04D88449204607F03AF810BDAE
:105A40008249204607F0AEFA04D27F49204606F08C
:105A5000DEFFF4E72046F2E72DE9F04F87B08246FB
:105A60000020069001E00AF1010A9AF800002028BF
:105A7000F9D09AF800000928F5D04FF00008DFF8B7
:105A8000D0919AF800002D2804D1DFF8C8910AF1CE
:105A9000010A05E09AF800002B2801D10AF1010A59
:105AA0000026374617E09AF80010A1F1300007F001
:105AB0000CFA0022684BCDE904013046394607F064
:105AC00015F9CDE90201DDE9042307F068F806467F
:105AD0000F460AF1010A9AF80000302803DB9AF811
